:1000000000000320D1010000590A0000250A000069
:10001000250A0000250A0000250A0000250A000024
:10002000250A0000250A0000250A0000590A0000E0
:10003000590A0000250A0000B91F00007D200000B9
:10004000590A0000590A0000590A0000590A000024
:10005000590A0000590A0000590A0000590A000014
:10006000590A0000590A0000590A0000590A000004
:10007000590A0000590A0000590A0000590A0000F4
:10008000590A0000590A0000590A0000590A0000E4
:10009000590A0000590A0000590A0000590A0000D4
:1000A000B12D0000BD2D0000590A0000590A0000C2
:1000B000590A0000590A0000590A00007121000085
:1000C000590A00008D220000590A0000A9230000EF
:1000D000590A000095240000590A0000590A00003E
:1000E000590A0000590A0000590A0000590A000084
:1000F000590A0000590A0000590A0000590A000074
:10010000590A0000590A0000590A0000590A000063
:10011000590A0000310F0000590A0000590A000076
:10012000590A0000590A0000590A0000590A000043
:10013000590A0000590A0000590A0000590A000033
:10014000590A0000590A000081250000590A0000E0
:10015000590A0000590A0000590A0000590A000013
:10016000590A0000590A0000C92D0000590A000070
:10017000590A0000590A0000590A0000590A0000F3
:10018000590A0000590A0000590A0000590A0000E3
:10019000590A0000590A00006D260000590A0000A3
:1001A000590A0000590A0000590A0000590A0000C3
:1001B000590A0000590A0000590A0000590A0000B3
:1001C000590A0000590A0000590A0000590A0000A3
:1001D0005D4B4CF2205210B51A804DF628121A8051
:1001E00000BF00BF00F03CFC584B4FF030621A607B
:1001F000574A9A60574ADA60574B4FF470021A60B8
:10020000564B574A1A60574A136813F4807301BF5C
:1002100055490B604FF4A8531360544B1A781107DB
:1002200048BF1A78524944BF42F008021A70514B35
:10023000AA221A70504A514B8B4204D252F8040F32
:1002400043F8040BF8E74E4B4E4A0021934202D28A
:1002500043F8041BFAE74C4A4C48002350F823109B
:1002600042F823100133742BF8D1494B494A8021BD
:1002700003F8011B9342FBD1474B434A1A60474B9B
:100280008A221A70A3F5805324225A70A0221A7071
:100290009A799207FCD59A79D406FCD4404A93798E
:1002A00003F00C03082BFAD13E4B60221A703E4A31
:1002B0001378802BFCD13A4B01221A715D225A71BE
:1002C0009A799006FCD59979354A4906FBD5374B82
:1002D000374919600021596020231370937903F086
:1002E0000C030C2BFAD1334B334A1A60334B344A8C
:1002F0001A6000225A60072243F8042C314AC3F8DE
:100300000C2D62B600F0B6FC174B1B68DA0705D55A
:100310002D4800F017FC2D4B2D4A1A602D4B1B78F1
:100320005B0609D5294C2A4B22689A4204D12648FB
:1003300000F008FC0023236003F0DAF900F096FBDC
:1003400000F0CEFAFEE700BF0E20054030800440EA
:10035000823F04000100002B88ED00E0002008E04F
:100360000300008510D0034014D0034002D00740A2
:100370006C11FF1F00E00740884400003007FF1F9A
:100380006C11FF1FEC15FF1F0002FF1F0000000093
:1003900000E400E064E400E008ED00E00050064006
:1003A0000040064001E0074003E00740448004406D
:1003B0000000060204800440C010070014E000E0C2
:1003C0001FBF020000002020A095D75B1CE0034067
:1003D000A5C3945A00F00740FFFFFFFFFFFFFFFF98
:1003E000FFFFFFFFFFFFFFFFFFFFFFFFFFFFFFFF1D
:1003F000FFFFFFFFFFFFFFFFFFFFFFFFFFFFFFFF0D
:10040000FFFFFFFFFFFFFFFFFFFFFFFFDEF9FFFF23
:1004100010B5054C237833B9044B13B10448AFF33E
:1004200000800123237010BD6C11FF1F000000002D
:100430008C440000084B10B51BB108490848AFF3C5
:1004400000800848036803B910BD074B002BFBD0A0
:10045000BDE81040184700BF000000007011FF1FEA
:100460008C4400006C11FF1F0000000070B50446B2
:1004700008460D4603F044FC236802462946204600
:100480005B68BDE87040184710B5094C0949204623
:10049000FFF7ECFF204600F01BF9074800F0BCF81E
:1004A000064B01211878BDE8104000F07BBB00BF6F
:1004B0003807FF1F344100009411FF1F3007FF1F52
:1004C00070B52DED028B224B224C1B68224D234828
:1004D000234E82B00193019B236000F0B9F823689A
:1004E0002A6886ED000A9B1A632B2CD91D491E48E9
:1004F0009FED1E8AFFF7BAFFD4ED007AF8EE677A17
:1005000087EE887A17EE100A02F0C8FD41EC100B56
:100510000221154800F028F915491348FFF7A6FFF6
:10052000D6ED007A87EE887A17EE100A02F0B6FD53
:1005300041EC100B02210C4800F016F90A4800F0BB
:10054000C7F823682B6002B0BDEC028B70BD00BF02
:100550009811FF1F8811FF1F9011FF1F9411FF1F9B
:100560008C11FF1F3A4100003807FF1F00007A443A
:1005700045410000014800F015B800BF9411FF1F6D
:10058000012302F033BB90F8383090F839209A42BA
:1005900081BF5A1C1B1880F83820187E98BF4FF076
:1005A000FF3070477047FFFF38B50D4CC023012561
:1005B000204684F83B3084F85E5084F85D5002F0A9
:1005C00011F90021204602F095FA2A4660212046C2
:1005D000FFF7D6FF2046FFF7D6FFC0B238BD00BFF9
:1005E0005808FF1F38B50B4CC023154684F83B3024
:1005F0002046012384F85E3084F85D3002F0F2F882
:100600002946204602F0EEF820460021BDE8384099
:1006100002F070BA5808FF1F10B504460B4802F0EC
:100620002BF90C212046FFF7BFFFC4280BD1204631
:10063000B9222621FFF7D6FF204607221321FFF714
:10064000D1FF012010BD002010BD00BF5808FF1FC2
:1006500038B5392226210546FFF7C4FF002404F0EF
:10066000040404F0FF013CB92846FFF79DFF04464F
:100670000A2000F0E9FAF2E7134DC02301212846D1
:1006800085F83B3085F85E1085F85D1002F0AAF819
:100690000021284602F02EFA032260212846FFF7A7
:1006A0006FFF2846FFF76FFF04022846FFF76BFF36
:1006B000204304022846FFF766FF2043030900EEAB
:1006C000103ABAEECF0A38BD5808FF1F0020704715
:1006D00007B5064B1B88ADF80430036802225B683F
:1006E00001A9984703B05DF804FB00BF5841000022
:1006F00070B505468AB022B90368C9B21B6898472D
:100700002FE0012A08BF0A2209B1212004E030228B
:100710008DF82520212014E0B1FBF2F602FB161122
:10072000CCB2092994BF04F1300104F137010AACBD
:100730000444C9B204F8241C314616B10138C0B2D1
:10074000EAE733B10138C0B20AAB03442D2203F803
:10075000242C2B6801A9C0F1220201445B682846C1
:1007600098470AB070BDFFFF2DE9F04F55EC104BD4
:1007700085B007460E4610EE102A2B4610EE100AE2
:10078000294602F079FF08B14D4912E025F00049F1
:100790004FF0FF324B4B2046494602F06DFF68B9DF
:1007A0004FF0FF32474B2046494602F047FF28B939
:1007B00045493846FFF75AFE804677E04FF06042E1
:1007C000424B2046294602F04DFF08B14049F0E770
:1007D0004FF060423F4B2046294602F025FF00289B
:1007E000F4D1002200232046294602F01DFF28B143
:1007F00005F100431D464FF0010800E080463649F0
:100800004FF0000900205FFA89F39E4207D92AA31E
:10081000D3E9002302F096FC09F10109F3E702464F
:100820000B462046294602F0DBFA0D46044602F04C
:1008300039FF4346014681460A223846FFF758FFF2
:1008400080469EB3484602F007FC0B460246294606
:10085000204602F0C3FA0F2E4FF02E0328BF0F26BA
:100860008DF800300DF101053446013CE4B2FF2C57
:1008700015D00022194B02F065FC8B46824602F02F
:1008800011FFC0B200F1300305F8013B02F0F4FBA8
:1008900002460B465046594602F0A0FAE5E73B688F
:1008A000721C5B68D2B2694638469847404605B02C
:1008B000BDE8F08FAFF30080000000A09999B93F28
:1008C0005A410000FFFFEF7F62410000FFFFEF4150
:1008D0005E410000FFFFEFC10000E03F0000244048
:1008E00008B5FFF7D1FDFFF7EBFD01F0E9FAFAE7F4
:1008F000844641EA000313F003036DD1403A41D32B
:1009000051F8043B40F8043B51F8043B40F8043BE9
:1009100051F8043B40F8043B51F8043B40F8043BD9
:1009200051F8043B40F8043B51F8043B40F8043BC9
:1009300051F8043B40F8043B51F8043B40F8043BB9
:1009400051F8043B40F8043B51F8043B40F8043BA9
:1009500051F8043B40F8043B51F8043B40F8043B99
:1009600051F8043B40F8043B51F8043B40F8043B89
:1009700051F8043B40F8043B51F8043B40F8043B79
:10098000403ABDD2303211D351F8043B40F8043B19
:1009900051F8043B40F8043B51F8043B40F8043B59
:1009A00051F8043B40F8043B103AEDD20C3205D329
:1009B00051F8043B40F8043B043AF9D2043208D021
:1009C000D2071CBF11F8013B00F8013B01D30B8893
:1009D00003806046704700BF082A13D38B078DD071
:1009E00010F003038AD0C3F10403D21ADB071CBF43
:1009F00011F8013B00F8013B80D331F8023B20F8AD
:100A0000023B7BE7043AD9D3013A11F8013B00F8E5
:100A1000013BF9D20B7803704B7843708B7883706D
:100A20006046704708B50B4D2C462B68580301D51E
:100A300000F07EFA2368590501D501F099FB23687F
:100A40001A0501D501F022FC2368DB04EDD501F085
:100A5000ABFCEAE73480044008B5FFF7E3FFFFFF93
:100A6000014B10221A807047002005407047FFFF9D
:100A7000094908B50B6868B16A461844A2F50052E6
:100A8000904206D302F02EFE0C2303604FF0FF309D
:100A900008BD0860184608BD3407FF1F094B1A78C7
:100AA000802A0DD1084A0949116002F5573202F235
:100AB000BD32002111701A78802AFCD001207047C5
:100AC0000020704703E007404480044000002822D3
:100AD000094B1A78012A0DD102F1804202F5FC225D
:100AE000602111701A78802AFCD1044B044A1A60E4
:100AF000012070470020704703E007404480044015
:100B00000000060230B503460020B3FBF2F402FBFE
:100B10001433092B94BF30333733DBB20B542346E5
:100B20000CB10130F1E70A1823465470C41AA342ED
:100B300006DACC5C1578CD5402F801490133F5E7AB
:100B4000084630BD044B054900221A600A60044A79
:100B5000106010221A60704714D0034004D0034084
:100B600000D003403F2810B518D80D4B53F8302063
:100B700092F880423CB1012311B182F8803010BD5F
:100B800082F8003110BD03EBC0035B681A6811B135
:100B900042F0030201E022F002021A6010BD00BF21
:100BA000684100003F2810B52BD8164A02EBC0035D
:100BB00001295B68144601D004290FD154F8302074
:100BC000012082F880024FF4A2721A601A68042988
:100BD0000CBF42F0200222F0200211E052F8300057
:100BE000002280F8802211B94FF4807208E00229B7
:100BF00002D140F2031203E0032908BF4FF48172CF
:100C00001A6010BD6841000072B60C4B0C4A0D49C9
:100C10001B681268096862B6490102D5322B88BF89
:100C20000132C3F52F33B42003F21F33B3FBF0F3CB
:100C30004FF47A7000FB0230704700BF18E000E00C
:100C40009811FF1F04ED00E038B50446FFF7DCFF04
:100C5000054624B938BD013C0AD005F57A75FFF781
:100C6000D3FF401BB0F57A7FF5D201F029F9F6E702
:100C700038BDFFFF374B38494FF0006270B51A603E
:100C80004FF080521A604FF000521A604FF08042CD
:100C90001A604FF000421A60304B314D314C324EE9
:100CA00000224EF6FF701A60586028230B608B609C
:100CB0000B618B610B628B620B638B63103101F5EF
:100CC00001212B6023600B608B600B618B610B62D9
:100CD0008B620921316006F58056043632607060FF
:100CE000B360336146F8041C06F5FE26326070607E
:100CF000B360336146F8041C06F5805632607060BC
:100D00001A482B6023600160A0F5E120A0F2D470A6
:100D1000016841F40071016050F8281C41F0007135
:100D200040F8281C12490A60124A47F6FF71116008
:100D30005360D360104B08221A6001F0ADF91920FE
:100D4000FFF782FF00F08CFE40F21310BDE8704008
:100D5000FFF77ABF04E100E00C8003400480034009
:100D60000C900B4014900B400080034000900B400F
:100D700004900C4008900C4000900C40431E032B44
:100D800014D872B60A4951F8230068B170B4094CFE
:100D9000058834F81320466841F82360521B24F874
:100DA000132062B670BC704762B67047002070476F
:100DB000F411FF1FD415FF1F013803280BD872B69A
:100DC000074B53F8203043B100205B680130002B03
:100DD000FBD162B67047002070471846F9E700BFA4
:100DE0004812FF1F30B472B62B4A13781D0706D580
:100DF0002A4B196A002936D0996A002941D05378C4
:100E00001C0706D5254B196C00293ED0996C00298A
:100E100039D09378190705D5204B196E002936D0A3
:100E2000996E89B1D3781B0707D51C4BD3F8802066
:100E30007AB3D3F8882011213AB162B6184B002258
:100E40001A7030BC00F0BEBE0D21154C154D227835
:100E500043F8315003EBC1030830013A5860227067
:100E600062B630BC704704220D4C0F4D217843F818
:100E7000325003EBC20308304A1E5860227062B63B
:100E8000EFE70521E1E70921DFE70822ECE70C2283
:100E9000EAE71022E8E700BF904300000000FF1FD0
:100EA0007112FF1FC800400088004000431E032B42
:100EB0001DD81B4A400140F0100030B4104472B6F7
:100EC000184CE25C032A1BD8DFE802F00212151767
:100ED00003220D88E25410F0080F14BFC8238823A2
:100EE00043EA054308310360416062B630BC704795
:100EF00008300222EDE70522EBE708300422E8E79C
:100F0000094A52F8230038B1084A52F823004160D8
:100F100042F8231062B6E9E742F82310034AF7E7E4
:100F20000000FF1F8012FF1F4812FF1F5812FF1FF3
:100F30002DE9F04FB54CB64E87B046E0B54F4FEABD
:100F4000930B07EBCB08013DD8F8041003F008031E
:100F5000EDB2A1F1080003F0FF02002B40F0108178
:100F600057F83B301B0C1FFA83FE21F808EC002BCE
:100F700000F0FD80A84B21F8062C41F8042C53F812
:100F80002520002A00F0DF82DFF8CCA25AF82530B5
:100F90005860DFF8C8924AF8250039F815309E44A9
:100FA00029F815E000F0F0FD002800F0C5829B490B
:100FB0009B4B18F0080F00F1080018BF0B46C8F84B
:100FC000040047F83B30082323702578EDB2690709
:100FD00019D5944B1B78A3B193490A7802F0FF030B
:100FE00022B1013BDBB20B7003B900BE8F490A7816
:100FF00002F0FF032AB1013BDBB20B70002B00F0C3
:1010000071820423237005F0080303F0FF02002B14
:1010100000F0DC803378DBB21D098FD19B087D4D59
:1010200055F8332005EBC301C2F38302013A496846
:101030000C2A00F29880DFE802F08C8C9696969647
:1010400096964D96969607000868DFF8F4E14A6890
:10105000DFF80CB2764FCEF80420CEF8000082B252
:1010600040F281600021DFF8B49145F833904FF0F1
:10107000010C8242CBF800102961A96187F800C0F9
:10108000DFF8909100F2F080B2F5D06F80F08F839E
:10109000B2F5817F00F0218300F2A882802A00F05F
:1010A0006283822A40F02083BEF8043003F07F037D
:1010B000042B00F219835F4A5F489B001A440170B9
:1010C000417013789B0740F17A8480F800C04FF09C
:1010D000020C4DE3DFF888B1DBF8003073B3DFF8C2
:1010E00084A1534F554ABAF8001097F800E01078E1
:1010F00040298C4640F0020928BF4FF0400CBEF159
:10110000000F8EF0010E87F800E0CCEB01010CBF60
:101110008827C82705EBC90E89B280F0010047EA8D
:101120000C47CEF80430AAF8001045F83970634433
:101130001070002900F04581CBF80030404B1A8830
:10114000B2F5A06F0FD13F4A9978117000225A7002
:1011500009E03B4A108842F22102904200F03681B9
:101160002E4A45F83320384A012313702BE72B49C8
:101170002B4B18F0080F18BF0B4647F83B3022E7FF
:1011800000F020FD3148324A50F82510002900F0C7
:1011900013824B6812F805C040F8253001F10803AE
:1011A000C8F80430BCF1030F05D8DFE80CF02C02BE
:1011B00029260223535518F0080F0A880CBF8823EC
:1011C000C82343EA024347F83B30FCE6E80700F156
:1011D0008C81290600F10082AA0706D51D4A0B4919
:1011E00013780220DBB213700870EB0602D5074BB0
:1011F00010221A7007B0BDE8F08F04235355DAE7C8
:1012000005235355D7E703235355D4E780200740E0
:10121000902007400000FF1FF411FF1FC80040008E
:10122000880040007C12FF1F0512FF1F8412FF1F61
:101230000412FF1FC02007407412FF1F7012FF1F0F
:101240006812FF1F98200740942007404812FF1F94
:101250008012FF1F88200740A011FF1FD415FF1F19
:101260009C11FF1FB011FF1F42F221039A4200F0B0
:10127000358100F2D980B2F5086F00F0B382B2F583
:10128000106F40F03182B24AD9F820309EF8021037
:1012900011701A0600F14383AB6AAE4A1B0600F1D7
:1012A00039832B6BAB4A180600F14E83AB6BA94A0E
:1012B000190600F144832B6CA64A1B0600F13A8301
:1012C000AB6CA44A180600F130832B6DA14A1906B5
:1012D00000F16483AB6D9F4A1B0600F15A832B6EAD
:1012E0009C4A180600F15083AB6E9A4A190600F129
:1012F00046832B6F974A1B0600F13C83AB6F954AE0
:10130000180600F13283D5F88030924A190600F1B0
:101310002683D5F888308F4A1B0600F11A83D5F84A
:1013200090308C4A180600F14483D5F89830894AE9
:10133000190600F1388300230193874B0293874BF2
:101340000393874B0593DFF860A2864BDFF85C922E
:101350000493029B186830B1D0F8048000F032FC8E
:1013600040460028F8D1039B1868029B1A460023C8
:101370001360019B1A4600234AF8223030B1D0F89E
:10138000048000F01FFC40460028F8D1039A049B1B
:10139000114600220A60059A1B781146002241F886
:1013A000042B019A0591023B4FF0000129F812101D
:1013B000032B00F23F81DFE813F08B0139018B0131
:1013C0003901BCF1400F18BF0023B5E6664A0F781B
:1013D0004878177050708F78C8789770D070106800
:1013E0000F79177186284F7989799171577108BFE4
:1013F0005E4A5F4F04BF0F2111705E4A3878117842
:10140000002881F0010E41F0020182F800E00CBFDB
:101410008822C82245F8312005EBC10180F0010087
:10142000002238704A609BE642F221239A4240F043
:10143000E781DFF87C91504B504A9EF80200D9F8C2
:1014400000E0C3F800E00191CDF808C01070002161
:10145000029B03918A4689460846464A92F800E074
:101460004EF0020C05EBCC08002BC8F804000CBFB2
:101470008820C82040EA0A0A9DF8043045F83CA0BC
:101480008EF001003B701070DFF8C8C0DFF8E0801C
:10149000DFF8E0A0002940F02E81B9F1400F1DD106
:1014A00040F0020005EBC005039B6B60019DDFF877
:1014B000A4C0002D40F036810D0445F088084CF89A
:1014C00030809DF808503D7082F800E00B444029C0
:1014D00004D100212A4ACBF800301180294A012387
:1014E000137040E600F0C8FC8BE51A4B25482149F3
:1014F0001A614FF0020E80F800E0234F0A70234972
:1015000019609960224E234D234C9A610D21397048
:10151000FF213170DFF89CE0297022701F4D204AB6
:101520008EF800109F27012406F8047C5D6004708B
:10153000DA6007B0BDE8F08F1A4A47F83B0013782D
:10154000013313703FE543F82500DFF85CA020E588
:101550007C12FF1F0000FF1FF411FF1F4812FF1F26
:101560005812FF1F8012FF1FDC15FF1F0512FF1FFF
:101570000412FF1F7012FF1FE415FF1F9412FF1FBC
:10158000B011FF1F94200740C02007408800400092
:10159000882007408020074098200740B411FF1F93
:1015A0000812FF1F7112FF1FA011FF1FD415FF1F8C
:1015B0009811FF1F8C200740535D032B00F2CC8055
:1015C00001A151F823F000BFC70F0000C70F0000B2
:1015D0002716000021160000BE49BF4B80220D20B7
:1015E00008701A70AA077FF500AEF7E540F20233E3
:1015F0009A4240F0FC80BEF8042002F07F02042AE8
:1016000072D8BEF80230002B6ED1B249019392001D
:101610001144CDF808C00A7842F002020A7016E7B9
:1016200001235355CFE400235355CCE4049B4FF0E2
:1016300001021A70029A019B04320292039A043248
:101640000392049A01330132042B019304927FF434
:1016500080AEDFF8B492DFF8B4A299F800309F4A68
:1016600000218AF8001013701B0700F10A8199F815
:1016700001309B4ADFF89882137018074FF0000280
:101680002A63AA6300F1E88099F80230954ADFF8EE
:101690008082137019074FF000022A65AA6500F1D5
:1016A0000381914A99F80330137000222A67AA67D0
:1016B0001A07DFF85C9200F1B8803B7802930022B1
:1016C00083F001030193C5F89020C5F89820BEE689
:1016D000049B4FF000021A70ACE7BEF8042002F041
:1016E0007F02042A40F291807A4B0F221A707F4ABF
:1016F0000123137037E540297FF6D2AE40F0020097
:101700000CEBC002039B5360019AC2B1784A9DF86A
:10171000085088F8005040398AF800E040334CF80F
:101720003020D7E69DF808303B700D04039B82F80B
:1017300000E045F0C8050B444CF83050C7E69DF872
:10174000083088F80030039B6A4A8AF800E0403984
:1017500040334CF83020BDE618F0080F0CBF0223D0
:10176000032353552FE464484FF0020C017041707D
:10177000BEF80610614580F06181604A92F800E091
:101780004EF0020C05EBCC034029894628BF4FF0F0
:101790004009586000EB09030393002301930123E0
:1017A000C9EB01014FEA094A0293C82062E6544B93
:1017B0005868002898D0BEF80210BEF804C003E0B4
:1017C0000C33586800288FD01A888A42F8D15A887A
:1017D0006245F5D1090A03290CBF90F800C0B3F89F
:1017E00008C0C5E7474B44481B780370C0E7B2F513
:1017F000A06F7FF479AF002301930123029326E6C3
:1018000042F221339A42F6D06EE7BEF80230002B46
:101810007FF46AAF2F49019392001144CDF808C0BC
:101820000A7822F002020A7011E600F0ADF90028F1
:1018300000F0D08008302F4BC9F88400C9F8803000
:1018400000F0A2F9002800F0BD800830284BC5F850
:101850008C00C5F8883030E700F096F9002800F0D9
:10186000D6800830234BC8F84400C8F8403000F058
:101870008BF9002800F0C48008301D4BE864AB648D
:1018800002E700F081F9002800F0B3800830194B1E
:1018900068622B6200F078F9002800F0A38008301D
:1018A000134BE862AB62E2E600F06EF9002800F04C
:1018B000BD8008300F4BC8F86400C8F8603000F0F5
:1018C00063F9002800F0AB800830094BE866AB668E
:1018D000E7E600BFC020074080200740C420074043
:1018E000C8200740CC200740D02007409420074064
:1018F000C8004000880040007412FF1F7012FF1FD4
:10190000944300007C12FF1F904300007112FF1FE0
:101910000000FF1FD06A083800F054F9C1E4D9F87C
:101920002400083800F04EF9B6E4D06C083800F016
:1019300049F9CAE4506C083800F044F9C0E4D06BAF
:10194000083800F03FF9B6E4506B083800F03AF977
:10195000ACE4D2F88C00083800F034F9DFE4D2F8B7
:101960008400083800F02EF9D3E4D06F083800F076
:1019700029F9C8E4506F083800F024F9BEE4D06EAD
:10198000083800F01FF9B4E4506E083800F01AF976
:10199000AAE4D06D083800F015F9A0E4506D0838BD
:1019A00000F010F996E4D2F89C00083800F00AF92B
:1019B000C1E4D2F89400083800F004F9B5E44FF01F
:1019C000020CD5E69AF80030C5F8880001338AF891
:1019D000003072E69AF80030C9F8800001338AF8C6
:1019E00000302DE79AF80030A86201338AF8003001
:1019F0003DE69AF80030286201338AF8003049E762
:101A00009AF80030A86401338AF800303CE69AF86E
:101A10000030C8F8400001338AF8003027E79AF810
:101A20000030A86601338AF800303AE69AF80030B0
:101A3000C8F8600001338AF8003040E7BCF1400F7D
:101A4000E14628BF4FF0400900EB09030393002350
:101A500001930123C9EB0C014FEA094A0293FCE40C
:101A60002DE9F04100F06EFE314C324B3248DFF888
:101A7000E480324EDFF8E0C0314F324DDFF8DCE079
:101A800000221A605A609A60DA601A615A619A619B
:101A9000DA611A625A629A62DA621A635A639A6364
:101AA000DA631A645A649A64DA641A655A659A6544
:101AB000DA651A665A669A66DA661A675A679A6724
:101AC000DA67C3F880202168C3F8842041F48021BC
:101AD0002160016841F040710160032188F8001025
:101AE000A020C3F307218CF8000004F528343170DE
:101AF000C3F30740144938701B0E2B70CC34FF23FE
:101B00008EF80030114D0CF8B83C11480B700123D1
:101B100006F8083C227070264FF40014102207F8D3
:101B20002C3C2E70046081F8F820BDE8F08100BFE5
:101B3000348004400000FF1F00D800409C20074074
:101B4000B0200740B42007401020074035E400E0F3
:101B500004E100E044210740402107408020074085
:101B600000F0A2B800F076B800F04EB800F08EB8E1
:101B700000F054B900F02EB90846114600F0ACB898
:101B8000084600F01BB9704710B572B60B480268E2
:101B9000B2FA82F10B2902DD62B6002010BD4FF0CF
:101BA0000043CB4022EA0302026062B6044C4823A1
:101BB0004B43E0180022E250426010BD4807FF1F6F
:101BC000D003FF1F0C4B4822C31AB3FBF2F30B2BBD
:101BD00011D80A4A127822B1094A12780AB1FFF7DD
:101BE00001B972B607494FF0004222FA03F30A68BE
:101BF0001A430A6062B67047D003FF1F7112FF1FBD
:101C00007C12FF1F4807FF1F10B5104C23686BB1F3
:101C1000206843885A1C03441C7A03889A4212D3D2
:101C2000FFF7D0FF094B00221A600DE0084B1B782C
:101C300013B94FF0FF3010BD0320FFF79FF820606D
:101C40000028E5D1F5E74280204610BD9012FF1F25
:101C50007C12FF1F10B50B4C236813B122686AB9C0
:101C600002E0094B1B7813B94FF0FF3010BD032081
:101C7000FFF784F820600028F0D1F5E7538813447B
:101C8000187A10BD9012FF1F7C12FF1F044B98881A
:101C9000044B1A681AB1138852889B1A184470476B
:101CA000D415FF1F9012FF1F10B5094B1B786BB1A5
:101CB000084C206818B1FFF785FF0023236003203C
:101CC000FFF75CF810B1FFF77DFFF8E710BD00BF2C
:101CD0007C12FF1F9012FF1F2DE9F84F314DDFF8E6
:101CE000D490012382460C462B700E464F46002EA0
:101CF00053D0D9F800303BBBDFF8BC80DFF8ACB084
:101D0000294B1B7803F0FF010BB9297015E0042063
:101D1000FFF752F8072807D801232B70FFF734FF8D
:101D2000386088B91F4B1870B8F1010802D09BF8D1
:101D3000003033B11D4B01221A704FF0FF30BDE867
:101D4000F88F00F0BDF8DBE7184B002119703968F7
:101D50004B88C3F14000B04228BF304603EB000E71
:101D60000B44A1F802E0361A07330AEB0008C2451B
:101D700004D01AF8010B03F8010FF8E74B883F2B4A
:101D800006D940230B800420FFF790F800233B6026
:101D9000074B05221A70C246A9E72E702046BDE8FF
:101DA000F88F00BF8512FF1F7C12FF1F8C12FF1FD0
:101DB0008412FF1F8812FF1F2148010007B502ABE4
:101DC000012103F8010D1846FFF786FF03B05DF807
:101DD00004FBFFFF38B50E4C0E4D012323702B681A
:101DE0007BB90D4B1B7813B90020207038BD04203F
:101DF000FEF7E2FF0728F7D8FFF7C6FE28600028A5
:101E0000F2D02B68588800232370C0F1400038BD01
:101E10008512FF1F8812FF1F7C12FF1F2DE9F04162
:101E2000114B1B78F3B1114F114B3C68114D01263A
:101E30001E7098464CB1002663882E702146238080
:101E40000420FFF733F83E6009E0FFF79DFE0146EE
:101E500020B104202C70FFF729F800E02E70002339
:101E600088F80030BDE8F0817C12FF1F8812FF1F48
:101E70008512FF1F8412FF1F38B50E4B1B7803F02D
:101E8000FF05ABB90C4C216831B14B880B800420A5
:101E9000FFF70CF8256038BDFFF776FE014620B14C
:101EA0000420BDE83840FFF701B8044B01221A7046
:101EB00038BD00BF8512FF1F8812FF1F8412FF1F4D
:101EC00038B5254C2378002B45D101232370FFF72B
:101ED000DDFE08B1FFF757FE00F03AF908B100F057
:101EE000D5F800F0C3F908B100F0D1F800F04CFAD1
:101EF00008B100F0CDF800F0BDFA08B100F0C9F863
:101F000000F02EFB08B100F0C5F800F09FFB08B10F
:101F100000F0C1F800232370EFF30583DBB9EFF382
:101F2000108272B60D4D286810B10D4C217811B198
:101F30008AB962B638BD0123237043692B600BB1A7
:101F4000996101E007490B6002B962B60025457747
:101F500083689847257038BD9512FF1FA812FF1F90
:101F6000AC12FF1FA412FF1FEFF3108072B6B0FA7D
:101F700080F04009704700B162B67047F8B50C4E6A
:101F80000C4F0025FFF7F0FF346802466CB163691F
:101F900033600BB19D6100E03B601046FFF7EBFF43
:101FA0006577A36820469847ECE7FFF7E4FFF8BDA4
:101FB0009812FF1F9C12FF1FFFF7E0BF15490B6827
:101FC00030B513B98360C36009E004681A689442AD
:101FD00007D20025121B8360C560D8601A600860B4
:101FE00015E002681C689968121B026061B10C68F8
:101FF000A2420B46F5D28160C968C160D860C16851
:10200000A21A88601A6002E08160C36098600223AF
:10201000037530BDA012FF1F70B5164D2C68002649
:10202000BCB1236813B1013B236012E0A26802B186
:10203000D36020692A60036826751B682246002148
:10204000984763681BB123602046FFF7B7FF2C68F1
:10205000E6E7FFF789FF084B00221C681A60FFF7CC
:102060008AFF2CB1A5682046FFF7A8FF2C46F8E7A9
:1020700070BD00BFA012FF1FB012FF1F024A1368FD
:1020800001331360FFF7C8BF9811FF1F70477047F7
:10209000704770477047704710B5204B2048214962
:1020A00060221A70E1225A701F4B204A1C78204B84
:1020B000082C01D1212402E00A2C03D13924046028
:1020C000132005E00C2C0CBF35245D240460122085
:1020D000086014601860174B17491B78174A03B142
:1020E00001230B601360164B164A1978164B012911
:1020F00001D880210BE0042901D8842107E00829B8
:1021000001D8852103E0102994BF86218721116021
:1021100019600E4B01221A7010BD00BF004007402D
:1021200008B003400CB003404C07FF1F08B00B4041
:102130000CB00B40B512FF1F20B0034020B00B4085
:102140004D07FF1F24B0034024B00B40B412FF1F03
:10215000054B1878054B1A78C0B2D3B2984238BFF5
:102160004030C01A704700BF3E13FF1FBD12FF1F53
:10217000F0B534490B7913F0300F2FD072B68B7D48
:1021800003F0FF0423B9CB7940234B7462B625E0FA
:1021900062B62D482D4A037812782D4FDBB2D2B2A9
:1021A0000546581C4028CE7928BF00209042F6B240
:1021B0001CBF3E540346601E10F0FF04F1D1D9B29B
:1021C00029702449096849B1934236BFC2F14002DF
:1021D0009B1A9B18272BC4BF01230B70194AD17877
:1021E000C9B20D061ED513791C061BD51A4B1B4808
:1021F0001D7803781A4EEDB2DBB2AB420AD0013340
:10220000402B28BF00231479F45CE4B2D471147D10
:10221000072CF2D9DBB203700A4B1A79100644BFBF
:102220007C22DA7049060CD5064B1A79520608D57D
:102230000C4A002111700C4A126802B111703C2244
:10224000DA70F0BD00A006403E13FF1FBD12FF1F55
:10225000FE12FF1FB812FF1F4413FF1F3F13FF1F83
:10226000BE12FF1FBC12FF1F4013FF1F054B187843
:10227000054B1A78C0B2D3B2984238BF4030C01A6A
:10228000704700BFB613FF1F4D13FF1FF0B5344951
:102290000B7913F0300F2FD072B68B7D03F0FF0453
:1022A00023B9CB7940234B7462B625E062B62D4842
:1022B0002D4A037812782D4FDBB2D2B20546581C56
:1022C0004028CE7928BF00209042F6B21CBF3E5471
:1022D0000346601E10F0FF04F1D1D9B229702449E1
:1022E000096849B1934236BFC2F140029B1A9B185C
:1022F000272BC4BF01230B70194AD178C9B20D0630
:102300001ED513791C061BD51A4B1B481D78037864
:102310001A4EEDB2DBB2AB420AD00133282B28BFF4
:1023200000231479F45CE4B2D471147D072CF2D943
:10233000DBB203700A4B1A79100644BF7C22DA70B4
:1023400049060CD5064B1A79520608D50C4A0021CD
:1023500011700C4A126802B111703C22DA70F0BDA3
:1023600000B00640B613FF1F4D13FF1F7613FF1F6B
:102370004813FF1FBC13FF1FB713FF1F4E13FF1F90
:102380004C13FF1FB813FF1F054B1878054B1A7825
:10239000C0B2D3B2984238BF4030C01A704700BFB5
:1023A0002E14FF1FC513FF1F10B5284B1A79920674
:1023B00020D52749DA790B782648013300783F2B5E
:1023C000C8BF0023834218BF2348D2B21EBFC254E5
:1023D000DAB20A70214A116861B1214A1278D2B288
:1023E000934236BFC2F140029B1A9B18272BC4BFF1
:1023F00001230B701549CA78D2B2140616D50B7991
:10240000180613D5174B164C18782378DBB2984270
:1024100002D16C23CB7009E00133282B28BF0023A5
:102420001148C05CDBB2C0B2C871237051060CD534
:10243000064B1A79520608D50C4A002111700C4A35
:10244000126802B111702C22DA7010BD00C0064073
:102450002E14FF1FC513FF1FEE13FF1FC013FF1F16
:102460002F14FF1F3414FF1FC613FF1FC413FF1FB9
:102470003014FF1F054B1878054B1A78C0B2D3B241
:10248000984238BF4030C01A704700BFA614FF1FE3
:102490003D14FF1F10B5284B1A79920620D5274905
:1024A000DA790B782648013300783F2BC8BF002328
:1024B000834218BF2348D2B21EBFC254DAB20A7098
:1024C000214A116861B1214A1278D2B2934236BFD3
:1024D000C2F140029B1A9B18272BC4BF01230B702B
:1024E0001549CA78D2B2140616D50B79180613D539
:1024F000174B164C18782378DBB2984202D16C2324
:10250000CB7009E00133282B28BF00231148C05CA1
:10251000DBB2C0B2C871237051060CD5064B1A79D4
:10252000520608D50C4A002111700C4A126802B1FB
:1025300011702C22DA7010BD00D00640A614FF1FC7
:102540003D14FF1F6614FF1F3814FF1FA714FF1F41
:10255000AC14FF1F3E14FF1F3C14FF1FA814FF1FE5
:10256000054B1878054B1A78C0B2D3B2984238BFE1
:102570004030C01A704700BF1E15FF1FB514FF1F63
:1025800010B5284B1A79920620D52749DA790B78AD
:102590002648013300783F2BC8BF0023834218BF71
:1025A0002348D2B21EBFC254DAB20A70214A11685F
:1025B00061B1214A1278D2B2934236BFC2F14002D1
:1025C0009B1A9B18272BC4BF01230B701549CA788F
:1025D000D2B2140616D50B79180613D5174B164C24
:1025E00018782378DBB2984202D16C23CB7009E0D3
:1025F0000133282B28BF00231148C05CDBB2C0B2D6
:10260000C871237051060CD5064B1A79520608D5AD
:102610000C4A002111700C4A126802B111702C2270
:10262000DA7010BD00A00E401E15FF1FB514FF1F6D
:10263000DE14FF1FB014FF1F1F15FF1F2415FF1FFF
:10264000B614FF1FB414FF1F2015FF1F054B187889
:10265000054B1A78C0B2D3B2984238BF4030C01A86
:10266000704700BF9615FF1F2D15FF1F10B5294B92
:102670005A6892021FD52849DA680B782748013337
:102680003F2B0078C8BF0023834204D02448D2B235
:10269000C254DAB20A70234A116861B1224A127830
:1026A000D2B2934236BFC2F140029B1A9B18272B2D
:1026B000C4BF01230B70174A906804021AD55368EF
:1026C000190217D5194B184C19782378DBB29942A7
:1026D00006D1174B00221A60012243F8042C09E0AE
:1026E0000133282B28BF00231249C95CDBB2C9B2D1
:1026F000D160237042020CD5064B5B685B0208D5A3
:102700000D4A002313700D4A126802B113700C4A6F
:10271000136010BD00400C409615FF1F2D15FF1FC4
:102720005615FF1F2815FF1F9715FF1F9C15FF1F2C
:102730005C0188432E15FF1F2C15FF1F9815FF1FE6
:102740005801884330B585B072B6FEF7A7F9154B2E
:10275000154970221A70154A116080221A701A7871
:102760001206FCD5124B1C68FEF7B2F962B6114B8B
:102770009C429CBF0A235C4301AD0A2229462046A5
:10278000FEF7C0F90C4A0023E95C21B101330A2BA2
:1027900022F8021BF8D1094A01335B00137005B01F
:1027A00030BD00BF000002400000074104000240AD
:1027B0000C0002407F969800D807FF1FD607FF1F26
:1027C00090F8392090F83800101A704790F8383097
:1027D00090F839209A4286BF1B18187E4FF0FF30C0
:1027E00070477047B0F85E302BB190F85D30202B09
:1027F00003D901230371002070475A1C034480F859
:102800005D2083F83B100120704738B50446B0F8CE
:102810005E001546A0B194F85D30C3F121029542E7
:1028200082BF01201546207104F13B0018442A465E
:10283000FEF75EF894F85D302B4484F85D3028464E
:1028400038BDFFFF43691A685B6812681A420ED0F0
:10285000074B9942036901D82C2204E0054A9142B2
:1028600094BF1C2212225A70036904229A71704785
:102870007F1A06003F420F0070B50023456980F8BB
:10288000383080F8393080F85C3080F85D3080F87E
:102890005E3080F85F3029686A680E6843663243AC
:1028A00083660A6002699370466990F86110124A63
:1028B00031440D7A4B7B02EBC5051B026D6803F4B6
:1028C000E06343F064032B6090F862303344997CFA
:1028D000DB7D02EBC1021B025268084903F4E0638E
:1028E00043F064031360FFF7ADFF036920225A71C0
:1028F000036980229A7070BD68410000A0860100C3
:1029000038B50269D578EDB215F0100F044605F020
:10291000400303D103F0FF012BB92AE01021D1704D
:10292000002BF7D138BD05F0040505F0FF02374B49
:10293000CDB100221A70636E84F85D2003B1984710
:1029400094F85D3023B9012284F85D2084F83B308F
:102950002369D0229A70236994F83B201A710123CD
:1029600084F85C304DE00121197084F83920236926
:102970002DE022699379DBB203F06000602809D171
:1029800003F0DF039371A36E23B184F8381094F839
:102990003900984723699A7802F0100202F0FF018B
:1029A000D2B115F0010512D194F85C2094F85D10B5
:1029B000914281BF511C121984F85C1092F83B209F
:1029C0008CBF1A711D712369D0229A7019E0C02240
:1029D0009A7023691B7914E084F860109A7942F0A8
:1029E00020029A7123691A7994F839301F2BD2B2D8
:1029F00007D80649097821B1591C234484F83910B5
:102A00001A7623690222DA7038BD00BF9D15FF1FB8
:102A10002DE9F347354D364F2B680093DDF80080E4
:102A2000044600214FF496762269D3789B0658D548
:102A30002B680193019BC8EB03030F2BF4D90029EA
:102A400047D1626994F8613013440521187AFEF782
:102A5000A9F8626994F861301344012193F812A037
:102A60005046FEF79FF84FF0090900215046FEF747
:102A700079F83346013BFDD101215046FEF772F84B
:102A80003346013BFDD1B9F10109EED1606994F8FB
:102A900061200244117A537B07EBC1011B02496894
:102AA00003F4E06343F064030B6094F86230034482
:102AB0009A7CDB7D07EBC2021B02526803F4E063E1
:102AC00043F0640313604FF41673013BFDD1012101
:102AD000AAE7102BA8D000209070236980229A705A
:102AE00000E0012002B0BDE8F08700BF9811FF1F91
:102AF000684100002DE9FF4103691222DA70026982
:102B0000937803F0200304460D4603F0FF0613B14B
:102B1000B423937008E0FFF77BFF002860D023699F
:102B200084F85F60B0229A702F4B21691A68009276
:102B3000009ECA7802F0200202F0FF00002A45D071
:102B40000020022794F85D20C1B28A4235D9661868
:102B5000226996F83B6016711A680392DDF80C80C2
:102B60002669F278D2B202F0020E0EF0FF0CBEF12E
:102B7000000F0BD1920609D51A680292029AC8EB8F
:102B80000202052AEDD986F802C026E0F770266910
:102B9000F278D2B212F0100F02D112F0200F03D14E
:102BA0008023B370042009E0D20700F10100C9D5E9
:102BB00000290CBF0220032001E0002015B1236989
:102BC00080229A70002384F85E300AE01A6801922D
:102BD000019A921B042AACD98870236980229A70CA
:102BE000042004B0BDE8F0819811FF1F2DE9F043E7
:102BF0009946002380F8383080F839300369174649
:102C00001222DA700269937803F0200389B0054636
:102C1000884603F0FF0413B1B423937009E0FFF773
:102C2000F7FE002800F0BD802B6985F85F40B022D8
:102C30009A705E4E2A69336800930099D37803F046
:102C4000200303F0FF0433B933680193019B5B1A3F
:102C5000042BF3D917E04FEA480848F001085FFA5F
:102C600088F882F804803368029302992A69D3783D
:102C700003F0020303F0FF044BB933680393039B93
:102C80005B1A052BF3D994702B69802210E0022384
:102C9000D3702B69D87810F0110403D080229A7079
:102CA00000247EE037B9B9F1000F14BF8022A022C2
:102CB0009A7076E0012F0CBFA822A0229A702B698F
:102CC0001B7900200221A824012F2A6933682BD008
:102CD0000493DDF810C0D37803F0020303F0FF0E75
:102CE0004BB933680593059BCCEB0303052BF2D955
:102CF00082F802E04FE0D1702A69D378DBB213F09A
:102D0000100F4DD19B064BD5013FFFB2012F08BFDD
:102D100094702B691F289FBF421C40191B790376B2
:102D20008CBF1B79D0B2CFE70693069CD37803F013
:102D3000020303F0FF013BB933680793079B1B1B9A
:102D4000052BF3D9917026E00223D3702A69D3783A
:102D5000DBB2D9060BD51023D3704FF49673013B29
:102D6000FDD12A69937803F0F703937018E09B066E
:102D700016D5B02393701F282B699FBF421C4019A2
:102D80001B7903768CBF1B79D0B200BF00BF00BF98
:102D9000B9F1000F02D02B6980229A7085F83900B2
:102DA0000446204609B0BDE8F08300BF9811FF1F1C
:102DB0000148FFF7A5BD00BF5808FF1F0148FFF7F6
:102DC0009FBD00BFC408FF1F0148FFF799BD00BFAA
:102DD000EC07FF1F81F0004102E000BF83F00043D9
:102DE00030B54FEA41044FEA430594EA050F08BFA6
:102DF00090EA020F1FBF54EA000C55EA020C7FEA6A
:102E0000645C7FEA655C00F0E2804FEA5454D4EBE6
:102E10005555B8BF6D420CDD2C4480EA020281EAB0
:102E2000030382EA000083EA010180EA020281EAE8
:102E30000303362D88BF30BD11F0004F4FEA01313A
:102E40004FF4801C4CEA113102D0404261EB410149
:102E500013F0004F4FEA03334CEA133302D05242CF
:102E600063EB430394EA050F00F0A780A4F101048B
:102E7000D5F1200E0DDB02FA0EFC22FA05F28018C5
:102E800041F1000103FA0EF2801843FA05F35941AB
:102E90000EE0A5F120050EF1200E012A03FA0EFC2A
:102EA00028BF4CF0020C43FA05F3C01851EBE37154
:102EB00001F0004507D54FF0000EDCF1000C7EEB71
:102EC00000006EEB0101B1F5801F1BD3B1F5001FAF
:102ED0000CD349085FEA30004FEA3C0C04F10104CE
:102EE0004FEA445212F5800F80F09A80BCF1004FF7
:102EF00008BF5FEA500C50F1000041EB045141EA79
:102F0000050130BD5FEA4C0C404141EB010111F479
:102F1000801FA4F10104E9D191F0000F04BF014624
:102F20000020B1FA81F308BF2033A3F10B03B3F102
:102F300020020CDA0C3208DD02F1140CC2F10C0292
:102F400001FA0CF021FA02F10CE002F11402D8BFF0
:102F5000C2F1200C01FA02F120FA0CFCDCBF41EABC
:102F60000C019040E41AA2BF01EB0451294330BD8B
:102F70006FEA04041F3C1CDA0C340EDC04F1140468
:102F8000C4F1200220FA04F001FA02F340EA03003F
:102F900021FA04F345EA030130BDC4F10C04C4F185
:102FA000200220FA02F001FA04F340EA0300294665
:102FB00030BD21FA04F0294630BD94F0000F83F4AF
:102FC000801306BF81F480110134013D4EE77FEA92
:102FD000645C18BF7FEA655C29D094EA050F08BFDE
:102FE00090EA020F05D054EA000C04BF19461046BF
:102FF00030BD91EA030F1EBF0021002030BD5FEA03
:10300000545C05D14000494128BF41F0004130BD2A
:1030100014F580043CBF01F5801130BD01F000457E
:1030200045F0FE4141F470014FF0000030BD7FEAF1
:10303000645C1ABF194610467FEA655C1CBF0B46EC
:10304000024650EA013406BF52EA033591EA030F03
:1030500041F4002130BD00BF90F0000F04BF0021FB
:10306000704730B54FF4806404F132044FF000052E
:103070004FF0000150E700BF90F0000F04BF0021A7
:10308000704730B54FF4806404F1320410F000450D
:1030900048BF40424FF000013EE700BF42004FEA08
:1030A000E2014FEA31014FEA02701FBF12F07F4385
:1030B00093F07F4F81F06051704792F0000F14BF82
:1030C00093F07F4F704730B54FF4607401F00045C6
:1030D00021F0004120E700BF50EA010208BF70471D
:1030E00030B54FF000050AE050EA010208BF704712
:1030F00030B511F0004502D5404261EB41014FF47B
:10310000806404F132045FEA915C3FF4DCAE4FF07E
:1031100003025FEADC0C18BF03325FEADC0C18BF65
:10312000033202EBDC02C2F1200300FA03FC20FAB6
:1031300002F001FA03FE40EA0E0021FA02F1144403
:10314000C1E600BF70B54FF0FF0C4CF4E06C1CEA18
:1031500011541DBF1CEA135594EA0C0F95EA0C0F8D
:1031600000F0DEF82C4481EA030621EA4C5123EA00
:103170004C5350EA013518BF52EA033541F480112F
:1031800043F4801338D0A0FB02CE4FF00005E1FBE2
:1031900002E506F00042E0FB03E54FF00006E1FB2C
:1031A00003569CF0000F18BF4EF0010EA4F1FF046F
:1031B000B6F5007F64F5407404D25FEA4E0E6D41AF
:1031C00046EB060642EAC62141EA55514FEAC520C0
:1031D00040EA5E504FEACE2EB4F1FD0C88BFBCF53C
:1031E000E06F1ED8BEF1004F08BF5FEA500E50F1ED
:1031F000000041EB045170BD06F0004646EA0101B3
:1032000040EA020081EA0301B4EB5C04C2BFD4EBE4
:103210000C0541EA045170BD41F480114FF0000EDD
:10322000013C00F3AB8014F1360FDEBF002001F04B
:10323000004170BDC4F10004203C35DA0C341BDCC5
:1032400004F11404C4F1200500FA05F320FA04F097
:1032500001FA05F240EA020001F0004221F00041CB
:1032600010EBD37021FA04F642EB06015EEA430E3E
:1032700008BF20EAD37070BDC4F10C04C4F120056E
:1032800000FA04F320FA05F001FA04F240EA020021
:1032900001F0004110EBD37041F100015EEA430EF2
:1032A00008BF20EAD37070BDC4F1200500FA05F212
:1032B0004EEA020E20FA04F301FA05F243EA020391
:1032C00021FA04F001F0004121FA04F220EA0200A0
:1032D00000EBD3705EEA430E08BF20EAD37070BDE6
:1032E00094F0000F0FD101F00046400041EB0101C6
:1032F00011F4801F08BF013CF7D041EA060195F0A8
:10330000000F18BF704703F00046520043EB030361
:1033100013F4801F08BF013DF7D043EA060370474E
:1033200094EA0C0F0CEA135518BF95EA0C0F0CD059
:1033300050EA410618BF52EA4306D1D181EA03019F
:1033400001F000414FF0000070BD50EA410606BF99
:103350001046194652EA430619D094EA0C0F02D1DE
:1033600050EA013613D195EA0C0F05D152EA033623
:103370001CBF104619460AD181EA030101F0004141
:1033800041F0FE4141F470014FF0000070BD41F08A
:10339000FE4141F4780170BD70B54FF0FF0C4CF464
:1033A000E06C1CEA11541DBF1CEA135594EA0C0F83
:1033B00095EA0C0F00F0A7F8A4EB050481EA030ED0
:1033C00052EA03354FEA013100F088804FEA0333B7
:1033D0004FF0805545EA131343EA12634FEA022285
:1033E00045EA111545EA10654FEA00260EF0004146
:1033F0009D4208BF964244F1FD0404F5407402D298
:103400005B084FEA3202B61A65EB03055B084FEA28
:1034100032024FF480104FF4002CB6EB020E75EB25
:10342000030E22BFB61A754640EA0C005B084FEA4D
:103430003202B6EB020E75EB030E22BFB61A7546CA
:1034400040EA5C005B084FEA3202B6EB020E75EB15
:10345000030E22BFB61A754640EA9C005B084FEA8D
:103460003202B6EB020E75EB030E22BFB61A75469A
:1034700040EADC0055EA060E18D04FEA051545EA89
:1034800016754FEA06164FEAC30343EA52734FEA32
:10349000C2025FEA1C1CC0D111F4801F0BD141EAAB
:1034A00000014FF000004FF0004CB6E711F4801F10
:1034B00004BF01430020B4F1FD0C88BFBCF5E06FF0
:1034C0003FF6AFAEB5EB030C04BFB6EB020C5FEA00
:1034D000500C50F1000041EB045170BD0EF0004E55
:1034E0004EEA113114EB5C04C2BFD4EB0C0541EA87
:1034F000045170BD41F480114FF0000E013C90E684
:1035000045EA060E8DE60CEA135594EA0C0F08BF47
:1035100095EA0C0F3FF43BAF94EA0C0F0AD150EA46
:1035200001347FF434AF95EA0C0F7FF425AF1046D9
:1035300019462CE795EA0C0F06D152EA03353FF401
:10354000FDAE1046194622E750EA410618BF52EA7E
:1035500043067FF4C5AE50EA41047FF40DAF52EA52
:1035600043057FF4EBAE12E74FF0FF3C06E000BFEF
:103570004FF0010C02E000BF4FF0010C4DF804CDFC
:103580004FEA410C7FEA6C5C4FEA430C18BF7FEABC
:103590006C5C1BD001B050EA410C0CBF52EA430CEA
:1035A00091EA030F02BF90EA020F0020704710F16A
:1035B000000F91EA030F58BF994208BF90422CBFF9
:1035C000D8176FEAE37040F0010070474FEA410CF2
:1035D0007FEA6C5C02D150EA013C07D14FEA430C10
:1035E0007FEA6C5CD6D152EA033CD3D05DF8040B81
:1035F000704700BF8446104662468C4619466346B3
:1036000000E000BF01B5FFF7B7FF002848BF10F189
:10361000000F01BD4DF808EDFFF7F4FF0CBF0120CE
:1036200000205DF808FB00BF4DF808EDFFF7EAFF4A
:1036300034BF012000205DF808FB00BF4DF808ED05
:10364000FFF7E0FF94BF012000205DF808FB00BFFA
:103650004DF808EDFFF7CEFF94BF012000205DF884
:1036600008FB00BF4DF808EDFFF7C4FF34BF012091
:1036700000205DF808FB00BF4FEA410C7FEA6C5C5C
:1036800002D150EA013C0AD14FEA430C7FEA6C5C5C
:1036900002D152EA033C02D14FF0000070474FF0D4
:1036A000010070474A0011D212F5001211D20DD557
:1036B0006FF47873B3EB62520ED44FEAC12343F038
:1036C000004343EA505323FA02F070474FF00000E2
:1036D000704750EA013002D14FF0FF3070474FF091
:1036E00000007047014B1868704700BF580DFF1F5E
:1036F00070B50F4E0F4D761BB61018BF002405D0C5
:10370000013455F8043B9847A642F9D10A4E0B4DB7
:10371000761B00F0ADFEB61018BF002406D00134B1
:1037200055F8043B9847A642F9D170BD70BD00BF63
:103730007C4400007C440000884400007C4400007D
:10374000024B0146186800F003B800BF580DFF1F78
:103750002DE9F04F01F10B05162D83B0064640F21E
:103760009F8035F0070500F1BF80A94200F2BC80C0
:1037700000F0A6FAB5F5FC7FC0F09C826B0A00F061
:10378000BA80042B00F28381A80900F1390E4FEAB8
:103790004E033830C44F07EB8303A3F108015C6884
:1037A000A14207D1ACE0002A80F2AC80E468A142DB
:1037B00000F0A680636823F003035A1B0F2AF2DD92
:1037C000B9493C6901F1080E744500F0B3816368A2
:1037D00023F003035A1B0F2A00F39981002AC1F832
:1037E00014E0C1F810E080F29E80B3F5007F80F015
:1037F0006781DB0803F1010C01229B1002FA03F33D
:103800004A6851F83C80C4F8088001EBCC091A439F
:10381000A9F10803E3604A6041F83C40C8F80C4055
:10382000831001249C40944200F28A80144206D105
:1038300020F003006400144200F10400FAD007EB0A
:10384000C009CC468046DCF80C108C4507D173E1EA
:10385000002A80F28181C9688C4500F06D814B6837
:1038600023F003035A1B0F2AF2DD0C46D1F80CC0DB
:1038700054F8088F4B1945F001054D6042F00101E5
:10388000C8F80CC03046CCF808807B613B61C3F8B7
:103890000CE0C3F808E059609A5000F013FA1FE0FA
:1038A000102921D800F00CFA1025062302207E4FA3
:1038B00007EB8303A3F108025C68944200F04581A2
:1038C0006368E168A56823F00303234430465A681F
:1038D000E96042F001028D605A6000F0F3F90834AB
:1038E000204603B0BDE8F08F00240C23204633604F
:1038F00003B0BDE8F08F80234FF0400E3F2049E732
:1039000070465DE72344E1685A68A56842F0010209
:10391000E96030468D605A6000F0D4F908342046E2
:1039200003B0BDE8F08F234430465A6842F00102EC
:103930005A6000F0C7F90834204603B0BDE8F08FA4
:10394000BC68636823F00308A84504D3C5EB0803EB
:103950000F2B00F38C80554BDFF860911A68D9F873
:10396000003001332A4404EB080A00F0608102F5BC
:1039700080520F3222F47F6222F00F02114630464D
:10398000019200F0A1F9B0F1FF3F8346019A00F0E7
:103990005881824500F2FC80454B1968DA45114494
:1039A000196000F05381D9F80000DFF810E1013010
:1039B0001BBFCAEB0B0A5144CEF800B019601BF0D4
:1039C000070100F01781C1F10800C1F5805183445F
:1039D00008315A44C2F30B02C2EB01094946304692
:1039E000019300F071F9431C019B00F03F81CBEB88
:1039F00000024A4442F001021968C7F808B049447D
:103A0000BC42CBF804201960DFF8A49016D0B8F1BE
:103A10000F0F40F2FD806268A8F10C0323F007034A
:103A2000E01802F001024FF0050E1A430F2B6260FE
:103A3000C0F804E0C0F808E000F21C811D4BBC682F
:103A40001A68914288BF19601B4B1A6891426268DC
:103A500088BF196022F003029542A2EB050301D84A
:103A60000F2B04DC304600F02DF9002438E76219F2
:103A700043F0010345F0010565603046BA605360CC
:103A800000F020F90834204603B0BDE8F08F142B75
:103A900071D9542B00F2A480280B00F16F0E4FEA6D
:103AA0004E036E3076E600BF5C0DFF1FA815FF1FAA
:103AB000AC15FF1FA415FF1FA015FF1F6811FF1FE6
:103AC0005A0A042A5ED9142A00F2B38002F15C017A
:103AD00049005B3207EB810C57F82110DFF8DC81DD
:103AE000ACF1080C8C4500F088804A6822F0030293
:103AF000934202D289688C45F7D1D1F80CC07A681C
:103B0000C4F80CC0A160CCF80840CC6088E663190A
:103B100042F0010745F00105656030464B610B61DD
:103B2000C3F80CE0C3F808E05F609A50083400F076
:103B3000C9F8D5E64A6873E608F1010818F0030FE2
:103B40000CF1080C7FF47FAE30E0DC68A34208BFC4
:103B500002303FF435AEB3E60B440C465A68C968F0
:103B600054F8085F42F001025A603046E9608D6007
:103B700000F0A8F8B4E603F15C0E03F15B004FEA35
:103B80004E0307E69A0902F1390149003832A1E7EC
:103B9000BC424A4B3FF400AF9C68626822F00302CB
:103BA0005AE759F80839994540F0828010F0030F20
:103BB00000F1FF30F5D17B6823EA04037B606400E9
:103BC0009C423FF6BDAE002C3FF4BAAE1C424046CC
:103BD0007FF435AE64001C4200F10400FAD02EE6FA
:103BE000B3F5AA7F18D8E80B00F1780E4FEA4E0320
:103BF0007730CFE54FF48051EBE60121D8F804305F
:103C0000921001FA02F21A43C8F80420614677E7DD
:103C10000123CBF8043025E740F25452934220D8D8
:103C2000A80C00F17D0E4FEA4E037C30B2E5103255
:103C3000A4E6542A26D81A0B02F16F0149006E320D
:103C400048E7BC68626822F0030205E7CAF30B008C
:103C500000287FF4A8AE4244BB6842F001025A60DB
:103C6000ECE6FE234FF07F0E7E2093E501224FF01D
:103C70000009C1E604F10801304600F021F9D9F845
:103C80000010DBE6B2F5AA7F05D8DA0B02F1780165
:103C9000490077321EE740F254518A4205D89A0C07
:103CA00002F17D0149007C3214E7FE217E2211E7FA
:103CB0007B6884E7E808431C5B00F8E55C0DFF1FA8
:103CC000704700BF704700BF38B5074C002305465A
:103CD00008462360FCF7CCFE431C00D038BD2368A7
:103CE000002BFBD02B6038BDE815FF1FFFFFFFFF47
:103CF000FFFFFFFFFFFFFFFFFFFFFFFFFFFFFFFFD4
:103D000090F800F06DE9024520F007016FF0000C1B
:103D100010F0070491F820F040F049804FF00004C3
:103D20006FF00700D1E9002391F840F000F108009E
:103D300082FA4CF2A4FA8CF283FA4CF3A2FA8CF3D6
:103D40004BBBD1E9022382FA4CF200F10800A4FA3D
:103D50008CF283FA4CF3A2FA8CF3E3B9D1E9042391
:103D600082FA4CF200F10800A4FA8CF283FA4CF3C8
:103D7000A2FA8CF37BB9D1E9062301F1200182FA82
:103D80004CF200F10800A4FA8CF283FA4CF3A2FA88
:103D90008CF3002BC6D0002A04BF04301A4612BA96
:103DA000B2FA82F2FDE8024500EBD2007047D1E999
:103DB000002304F00305C4F100004FEAC50514F028
:103DC000040F91F840F00CFA05F562EA05021CBFF9
:103DD00063EA050362464FF00004A9E7024B13B102
:103DE000024800F005B8704700000000FD3D0000EB
:103DF000002301461A46184600F04AB938B5074D67
:103E0000074C2C1BA41005D0013C55F8043D9847E5
:103E1000002CF9D1BDE8384000F036BB00000000AE
:103E200000000000F8B5234F0C460646FFF748FF98
:103E3000BB685D6825F00305291B01F6EF7121F4CD
:103E40007F6121F00F01A1F58054B4F5805F07DB9D
:103E500000213046FFF738FFBB682B44984204D05E
:103E60003046FFF72FFF0020F8BD61423046FFF7D4
:103E70002BFF01300DD0104BBA6819682D1B45F08F
:103E800001053046091B55601960FFF71BFF012033
:103E9000F8BD00213046FFF717FFBA68831A0F2BD1
:103EA000DEDD064C0449246843F00103001B536027
:103EB0000860D5E75C0DFF1FAC15FF1F6811FF1FE1
:103EC000002945D02DE9F0410D468046FFF7F8FE68
:103ED00055F8047C6A4927F00103A5F10804E218AB
:103EE0008E685068B24220F0030062D0FE07506036
:103EF0000BD455F8087CE41B01F1080EA568754544
:103F00003B446FD0E768EF60BD6015186D68ED0742
:103F100042D543F001026260E350B3F5007F18D24E
:103F2000DB085A1C4D6851F83270A76001209B10C5
:103F300000FA03F301EBC2001D430838E0604D6056
:103F400041F83240FC604046BDE8F041FFF7BABEA0
:103F500070475A0A042A53D89A0902F139077F0098
:103F600002F1380501EB870051F827204449083851
:103F700090424DD0516821F003018B4202D29268E9
:103F80009042F7D1D068E060A2608460D46040467F
:103F9000BDE8F041FFF796BE95683A4FBD42034435
:103FA0003FD0D068E86043F0010285606260E35072
:103FB000B3E7FF07034407D455F8082CA41A1344A9
:103FC000A068E268C26090602F4A126843F0010066
:103FD000934260608C60B6D32C4B40461968FFF763
:103FE00021FFB0E711184968C90744D49168D26825
:103FF000CA60034443F0010091606060E350A2E7AF
:10400000142A17D802F15C077F0002F15B05A9E7CB
:10401000AA104B68012505FA02F213434B600246D1
:10402000B1E743F001024C610C61E560A56062609C
:10403000E35088E7542A06D81A0B02F16F077F0075
:1040400002F16E058EE7B2F5AA7F06D8DA0B02F10F
:1040500078077F0002F1770584E740F254508242EE
:1040600006D89A0C02F17D077F0002F17C0579E702
:10407000FE277E2576E743F001026260E35062E7A7
:104080005C0DFF1F640DFF1F6411FF1FA815FF1FAC
:104090002DE9F047254C2568D5F848410646884665
:1040A00092469946C4B360681F2817DC431C76B15A
:1040B00004EB80050122C5F888A0D4F8881182405D
:1040C0001143022EC4F88811C5F808911ED00230A1
:1040D000636044F820800020BDE8F087144B03B3F0
:1040E0004FF4C870FFF72CFB0446D0B1D5F8483127
:1040F000002780E88800C5F8484138460123C4F805
:104100008871C4F88C71002EE1D0D1E7D4F88C11FD
:104110000A43C4F88C21DAE705F5A674C5F84841CE
:10412000C1E74FF0FF30BDE8F08700BF6C440000EE
:104130004137000053746172740054696D65202822
:1041400073293A20002020205072657373757265C0
:1041500020286B50612920000D0A6E616E006F7679
:104160006600696E6600FFFF4008FE4340A0044001
:104170004408FE4344A004400018FE4300C004402D
:104180003000FE43309004403400FE43349004403D
:104190001C18FE431CC004401018FE4310C004400D
:1041A0000818FE4308C004400C18FE430CC004402D
:1041B0000C10FE430CB004401010FE4310B004403D
:1041C0001810FE4318B004401C10FE431CB00440FD
:1041D0001410FE4314B004400418FE4304C004400D
:1041E0000010FE4300B004400008FE4300A004405D
:1041F0000408FE4304A004400C08FE430CA0044045
:104200000808FE4308A004401418FE4314C00440EC
:104210001818FE4318C004400410FE4304B00440C4
:104220000810FE4308B004406820FE4368D00440F4
:104230001400FE43149004403800FE4338900440BC
:104240003C00FE433C9004404000FE43409004404C
:104250004808FE4348A004404C08FE434CA00440DC
:104260002808FE4328A004402C08FE432CA004404C
:104270006020FE4360D004406420FE4364D00440CC
:104280002010FE4320B004402410FE4324B004401C
:104290002810FE4328B004402C10FE432CB00440EC
:1042A0004400FE43449004407000FE43709004407C
:1042B0007400FE43749004406800FE43689004401C
:1042C0005008FE4350A004405808FE4358A0044044
:1042D0005C08FE435CA004405408FE4354A0044024
:1042E0002018FE4320C004402418FE4324C004408C
:1042F0001008FE4310A004401408FE4314A004401C
:104300003818FE4338C004403418FE4334C004401B
:104310003018FE4330C004403C18FE433CC004400B
:104320002C18FE432CC004402820FE4328D0044013
:104330002C20FE432CD004400020FE4300D004403B
:104340000420FE4304D004400820FE4308D004406B
:104350000C20FE430CD004401020FE4310D004403B
:104360001420FE4314D004400000000000000000B0
:10437000811B0000791B0000751B0000711B0000F1
:104380006D1B0000691B0000651B0000611B000025
:1043900000151915000100004E07FF1F1200000054
:1043A000000200007807FF1F430000000003000028
:1043B000D207FF1F00000000010309046007FF1F70
:1043C0000000000002030904BC07FF1F00000000FA
:1043D00003030904D607FF1F0000000000000000CF
:1043E0000000000000000000348004404000000095
:1043F00012112208300202050702131021072F02B2
:10440000020507021800000034800440800000000C
:10441000263AFFFFFF0206000000253BFFFFFF02D8
:104420000600000019000000288004404000000041
:1044300004FFFFFFFF0500000000031AFFFFFF0558
:10444000050000004A00000000000000000000001D
:10445000E52700000B280000CD060000E327000040
:10446000C127000087050000CD2700003009FF1F8D
:10447000F8B500BFF8BC08BC9E467047DD3D0000A3
:08448000350400007505000081
:04448800F8B500BFC4
:10448C000D000000EC15FF1F704300000000000041
:10449C00E803000000000000FFFFFFFF0A04120108
:1044AC00100102000040C0168304770201020301D0
:1044BC0018035400650065006E00730079006400F9
:1044CC00750069006E006F0009024300020100C014
:1044DC00320904000001020201000524001001054C
:1044EC0024010101042402060524060001070582AB
:1044FC000310004009040100020A00000007050334
:10450C00024000000705840240000000160355001D
:10451C0053004200200053006500720069006100E6
:10452C006C00040309040C030000000000000000F0
:10453C0000000000000000000000000050440000DB
:10454C0000000000E80300000000000000600E40C6
:10455C0028440000000000000000000000000000E3
:10456C00000000000000000000000000000000003F
:10457C00000000000000000000000000000000002F
:10458C00000000000000000000000000000000001F
:10459C00000000000000000000000000000000000F
:1045AC00000000000000000050440000000000006B
:1045BC00E80300000000000000600640E843000033
:1045CC0000000000000000000000000000000000DF
:1045DC0000000000000000000000000000000000CF
:1045EC0000000000000000000000000000000000BF
:1045FC0000000000000000000000000000000000AF
:10460C00000000000000000000000000000000009E
:10461C00000000005044000000000000E80300000F
:10462C00000000000070064008440000000000007C
:10463C00000000000000000000000000000000006E
:10464C00000000000000000000000000000000005E
:10465C00000000000000000000000000000000004E
:10466C00000000000000000000000000000000003E
:10467C00000000000000000000000000000000002E
:10468C00000000001C0CFF1F840CFF1FEC0CFF1F14
:10469C00000000000000000000000000000000000E
:1046AC0000000000000000000000000000000000FE
:1046BC0000000000000000000000000000000000EE
:1046CC0000000000000000000000000000000000DE
:1046DC0000000000000000000000000000000000CE
:1046EC0000000000000000000000000000000000BE
:1046FC0000000000000000000000000000000000AE
:10470C00000000000000000000000000000000009D
:10471C00000000000000000000000000000000008D
:10472C00000000000000000001000000000000007C
:10473C000E33CDAB34126DE6ECDE05000B00000041
:10474C00000000000000000000000000000000005D
:10475C00000000000000000000000000000000004D
:10476C00000000000000000000000000000000003D
:10477C00000000000000000000000000000000002D
:104AAC0000000000000000003009FF1F00000000A3
:104ABC00000000005C0DFF1F5C0DFF1F640DFF1F4D
:104ACC00640DFF1F6C0DFF1F6C0DFF1F740DFF1F7E
:104ADC00740DFF1F7C0DFF1F7C0DFF1F840DFF1F2E
:104AEC00840DFF1F8C0DFF1F8C0DFF1F940DFF1FDE
:104AFC00940DFF1F9C0DFF1F9C0DFF1FA40DFF1F8E
:104B0C00A40DFF1FAC0DFF1FAC0DFF1FB40DFF1F3D
:104B1C00B40DFF1FBC0DFF1FBC0DFF1FC40DFF1FED
:104B2C00C40DFF1FCC0DFF1FCC0DFF1FD40DFF1F9D
:104B3C00D40DFF1FDC0DFF1FDC0DFF1FE40DFF1F4D
:104B4C00E40DFF1FEC0DFF1FEC0DFF1FF40DFF1FFD
:104B5C00F40DFF1FFC0DFF1FFC0DFF1F040EFF1FAC
:104B6C00040EFF1F0C0EFF1F0C0EFF1F140EFF1F59
:104B7C00140EFF1F1C0EFF1F1C0EFF1F240EFF1F09
:104B8C00240EFF1F2C0EFF1F2C0EFF1F340EFF1FB9
:104B9C00340EFF1F3C0EFF1F3C0EFF1F440EFF1F69
:104BAC00440EFF1F4C0EFF1F4C0EFF1F540EFF1F19
:104BBC00540EFF1F5C0EFF1F5C0EFF1F640EFF1FC9
:104BCC00640EFF1F6C0EFF1F6C0EFF1F740EFF1F79
:104BDC00740EFF1F7C0EFF1F7C0EFF1F840EFF1F29
:104BEC00840EFF1F8C0EFF1F8C0EFF1F940EFF1FD9
:104BFC00940EFF1F9C0EFF1F9C0EFF1FA40EFF1F89
:104C0C00A40EFF1FAC0EFF1FAC0EFF1FB40EFF1F38
:104C1C00B40EFF1FBC0EFF1FBC0EFF1FC40EFF1FE8
:104C2C00C40EFF1FCC0EFF1FCC0EFF1FD40EFF1F98
:104C3C00D40EFF1FDC0EFF1FDC0EFF1FE40EFF1F48
:104C4C00E40EFF1FEC0EFF1FEC0EFF1FF40EFF1FF8
:104C5C00F40EFF1FFC0EFF1FFC0EFF1F040FFF1FA7
:104C6C00040FFF1F0C0FFF1F0C0FFF1F140FFF1F54
:104C7C00140FFF1F1C0FFF1F1C0FFF1F240FFF1F04
:104C8C00240FFF1F2C0FFF1F2C0FFF1F340FFF1FB4
:104C9C00340FFF1F3C0FFF1F3C0FFF1F440FFF1F64
:104CAC00440FFF1F4C0FFF1F4C0FFF1F540FFF1F14
:104CBC00540FFF1F5C0FFF1F5C0FFF1F640FFF1FC4
:104CCC00640FFF1F6C0FFF1F6C0FFF1F740FFF1F74
:104CDC00740FFF1F7C0FFF1F7C0FFF1F840FFF1F24
:104CEC00840FFF1F8C0FFF1F8C0FFF1F940FFF1FD4
:104CFC00940FFF1F9C0FFF1F9C0FFF1FA40FFF1F84
:104D0C00A40FFF1FAC0FFF1FAC0FFF1FB40FFF1F33
:104D1C00B40FFF1FBC0FFF1FBC0FFF1FC40FFF1FE3
:104D2C00C40FFF1FCC0FFF1FCC0FFF1FD40FFF1F93
:104D3C00D40FFF1FDC0FFF1FDC0FFF1FE40FFF1F43
:104D4C00E40FFF1FEC0FFF1FEC0FFF1FF40FFF1FF3
:104D5C00F40FFF1FFC0FFF1FFC0FFF1F0410FF1FA2
:104D6C000410FF1F0C10FF1F0C10FF1F1410FF1F4F
:104D7C001410FF1F1C10FF1F1C10FF1F2410FF1FFF
:104D8C002410FF1F2C10FF1F2C10FF1F3410FF1FAF
:104D9C003410FF1F3C10FF1F3C10FF1F4410FF1F5F
:104DAC004410FF1F4C10FF1F4C10FF1F5410FF1F0F
:104DBC005410FF1F5C10FF1F5C10FF1F6410FF1FBF
:104DCC006410FF1F6C10FF1F6C10FF1F7410FF1F6F
:104DDC007410FF1F7C10FF1F7C10FF1F8410FF1F1F
:104DEC008410FF1F8C10FF1F8C10FF1F9410FF1FCF
:104DFC009410FF1F9C10FF1F9C10FF1FA410FF1F7F
:104E0C00A410FF1FAC10FF1FAC10FF1FB410FF1F2E
:104E1C00B410FF1FBC10FF1FBC10FF1FC410FF1FDE
:104E2C00C410FF1FCC10FF1FCC10FF1FD410FF1F8E
:104E3C00D410FF1FDC10FF1FDC10FF1FE410FF1F3E
:104E4C00E410FF1FEC10FF1FEC10FF1FF410FF1FEE
:104E5C00F410FF1FFC10FF1FFC10FF1F0411FF1F9D
:104E6C000411FF1F0C11FF1F0C11FF1F1411FF1F4A
:104E7C001411FF1F1C11FF1F1C11FF1F2411FF1FFA
:104E8C002411FF1F2C11FF1F2C11FF1F3411FF1FAA
:104E9C003411FF1F3C11FF1F3C11FF1F4411FF1F5A
:104EAC004411FF1F4C11FF1F4C11FF1F5411FF1F0A
:0C4EBC005411FF1F00000200FFFFFFFF69
:00000001FF
